:03000000020EF5F8
:0C0EF500787FE4F6D8FD75813A020F3CCE
:100DB00047534D20424153454420454E45524759E3
:100DC00020004D455445522052454144494E47204C
:100DD0002E2E2E2E0041540041542B434D47463DAC
:100DE000310041542B434D47443D0050554C534531
:100DF00020434F554E543A004E4F2E554E495453B2
:100E00003A0041542B434D47523D00504C4541530D
:100E100045205041592042494C4C0042494C4C3AE3
:100E20000042494C4C2050414944202E2E2E2E2E5B
:100E30002E2E2E2E00504F574552204F4E202E2E34
:100E40002E2E2E2E2E2E2E2E0057524F4E47204D38
:100E50004553534147452E2E004D45535341474579
:100E60002053454E44494E472E2E2E2E0041542BE2
:100E7000434D47533D0037393933373736393237E9
:100E8000004D4F4E544820434F4D504C455445441F
:100E900020504C454153452050415920544845204D
:100EA00042494C4C20414D4F554E5420414E442018
:100EB000554E4954532049533A00554E4954533ADC
:100EC0000052533A00373031333638343639320035
:100ED0004D4F4E544820434F4D504C455445442EA1
:100EE0002E2E2E00504C4541534520504159204252
:050EF000494C4C2000FC
:1011B900022900000231000002390000042B3EA080
:0211C900000024
:1010C4007F221211D37F0A1211D37F0D1211D37F05
:0310D400D07E07C4
:1010D700D3EF9400EE94004015E4FDFC0DBD000134
:0E10E7000CED64E14C70F5EF1F70E51E80E229
:0110F50022D8
:10118F0020980E20970312108C2096F4120C5F807B
:06119F00EFC298AF992297
:0711CC007F0A1211D37F0D11
:0811D3008F993099FDC29922A9
:061126007BFF7A0D79E267
:10112C008B268A278928AB26AA27A9281209C560ED
:10113C00130528E5287002052714F91209C5FF12BA
:05114C0011D380E22236
:0F0F8100AE39AF3A7C007D051209DE8E298F2A2A
:040F9000AB07AA06FB
:100F94007C277D101209F07E037FE8CFCDCFCECC25
:100FA400CE1209F0EF2430F5267C037DE8AF03AEC2
:100FB400021209F07E007F64CFCDCFCECCCE1209D1
:100FC400F0EF2430F5277C007D64AF03AE021209F4
:100FD400F07E007F0ACFCDCFCECCCE1209F0EF2425
:100FE40030F528AE02AF037C007D0A1209F0ED242F
:100FF40030FEAF261211D3AF271211D3AF2812112E
:05100400D3FF0211D32F
:0E1151007FE87E031210D77F0112115F7F80AE
:10115F008FA0C2B5C2B6D2B77F0A7E001210D7C217
:08116F00B77F0A7E000210D7D1
:1011A5007F3812115F7F0E12115F7F0112115F7F71
:0411B5000602115FBE
:101177008FA0D2B5C2B6D2B77F0A7E001210D7C2EF
:08118700B77F0A7E000210D7B9
:0B10F6007FC012115F7BFF7A0D79F8BC
:101101008B268A278928AB26AA27A9281209C56018
:10111100130528E5287002052714F91209C5FF12E5
:05112100117780E222BD
:091009007F8C12115FAF32AE3191
:04101200AB07AA0678
:101016007C277D101209F07E037FE8CFCDCFCECCA2
:10102600CE1209F0EF2430F5267C037DE8AF03AE3F
:10103600021209F07E007F64CFCDCFCECCCE12094E
:10104600F0EF2430F5277C007D64AF03AE02120971
:10105600F07E007F0ACFCDCFCECCCE1209F0EF24A2
:1010660030F528AE02AF037C007D0A1209F0ED24AC
:1010760030FBAF26121177AF27121177AF28121166
:0610860077AF03021177B1
:100A5300E4F508F509F50AF50BF5161211A57598D5
:100A630050758920758DFDD28E7F0112115F7FF441
:100A73007E011210D7C2917F8012115F7BFF7A0D26
:100A830079B01211017FC012115F7BFF7A0D79C219
:100A93001211011210D31211587BFF7A0D79D5125E
:100AA30011017BFF7A0D79D512112C1211CC121181
:100AB300517BFF7A0D79D81211017BFF7A0D79D81A
:100AC30012112C1211CC7FE87E031210D7121126BB
:100AD3007F311210C61211267F321210C612112650
:100AE3007F331210C61211587BFF7A0D79EB121166
:100AF300011210091210F67FC912115FAF3AAE3915
:100B0300121012C298D29112118FBF2CFA12118FA8
:100B13008F0A7F0112115F7BFF7A0E790212112C6B
:100B2300AF0A1211D31211CC12118FBF2CFAE4F5B4
:100B330008C3E508940E74809480500E12118F74CC
:100B4300172508F8A607050880E712118F8F1612DC
:100B5300118FEF640D70F3F50B12118F740C250BCD
:100B6300F8A607740C250BF8E6640D6004050B80EA
:100B7300E8121158E4F50B740C250BF8E6FF640D2D
:100B83006007121177050B80EE1210D3121126AFF6
:100B93000A1210C6E50E6431702E1211587BFF7ACB
:100BA3000E790B1211017FC012115F7BFF7A0E7950
:100BB3001B1211017FC512115FAF2AAE2912101249
:100BC300C2911210D3020C59E50E64327F01706E8C
:100BD30012115A7BFF7A0E79211211017FC0121173
:100BE3005F7BFF7A0E7935121101D2911210D37FF8
:100BF3000112115FC3E5329538F532E5319537F5CA
:100C030031C3E53A9530F53AE539952FF5397F014A
:100C130012115FC2981211587BFF7A0D79EB1211F2
:100C2300011210091210F67FC912115FAF3AAE39E3
:100C3300121012E4F537F538F52FF530801812113C
:100C43005A7BFF7A0E79491211017FE87E03121055
:0C0C5300D77F0112115FE4F509020B0AC3
:100C5F00C2987BFF7A0D79D512112C1210C97BFF28
:100C6F007A0D79D812112C1210C91211587BFF7AF4
:100C7F000E79591211017BFF7A0E796D12112C7FAB
:100C8F00221211D37BFF7A0E797612112C1210C417
:100C9F007BFF7A0E798112112C1211CC7BFF7A0E09
:100CAF0079BA12112CAF3AAE39120F901211CC7BC8
:100CBF00FF7A0E79C112112C120F811210D37F01FE
:100CCF0012115F7F1A1211D37FB87E0B1210D77BD0
:100CDF00FF7A0D79D512112C1210C97BFF7A0D797D
:100CEF00D812112C1210C91211587BFF7A0E795994
:100CFF001211017BFF7A0E796D12112C7F221211C6
:100D0F00D37BFF7A0E79C512112C1210C47BFF7A98
:100D1F000E798112112C1211CC7BFF7A0E79BA1237
:100D2F00112CAF3AAE39120F901211CC7BFF7A0E05
:100D3F0079C112112C120F811210D37F0112115F82
:100D4F007F1A1211D37FB87E0B1210D785293585E4
:100D5F002A3685313785323885392F853A307FE805
:100D6F007E031210D7C2987F8012115F7BFF7A0E1D
:100D7F0079D01211017FC012115F7BFF7A0E79E4D7
:100D8F001211011211517BFF7A0D79EB1211011221
:100D9F0010091210F67FC912115FAF3AAE39021067
:010DAF001231
:10108C000532E53270020531121009AC31AD32E493
:10109C0012090BAB2EAA2DA92CA82B120800120991
:1010AC00448E398F3A7FC912115FAF3AAE391210A4
:0810BC00127FC87E000210D76C
:10080000EC4D6011E8497017ED33EC3304600DE4F2
:10081000FCFFFEFD22E933E8330470F80209B01250
:10082000097B58046009E4CC248150062850090251
:1008300009BA2840030209B7C0E0EB4A7044B98006
:1008400006D0E0FB0209A6EF4E701CBD8008EBFF4E
:10085000EAFEE9FD80EBE98DF0A4FEE5F00208E98F
:10086000E9CDF9EAFEEBFFEF89F0A4FCE5F0CE89D3
:10087000F0A42EFFE435F0CD89F0A42DFEE435F090
:100880008067EF4E7005BD80D780C3EF8BF0A4ACBE
:10089000F0EE8BF0A42CFCE435F0F8EF8AF0A42CF9
:1008A000E5F038FCE433CB8DF0A42CFCE5F03BF80C
:1008B000EE8AF0A42CFCE5F038F8E433CF89F0A4FC
:1008C0002CFCE5F038CF3400CE89F0A42FFFE5F002
:1008D0003EFEE433C98DF0A42EFEE5F039CD8AF05A
:1008E000A42FFFE5F03EFEE43DFD33D0E0FB5007D2
:1008F0000BBB000F0209BAEC2CFCEF33FFEE33FE0A
:06090000ED33FD02099237
:1009060075F020800E75F010800575F0087D007E6C
:10091600007F003392D530D503120A45EC334010E0
:10092600EF33FFEE33FEED33FDEC33FCD5F0ED2275
:0E093600E5F0247EA2D513CC92E7CDCEFF22B1
:10094400EDD2E7CD33EC3392D524814006E4FFFEAB
:10095400FDFC22FCE4CFCECDCC24E0501174FF800A
:10096400EDC3CC13CCCD13CDCE13CECF13CF0470A7
:07097400F030D5DE020A4558
:10097B00E9D2E7C933E833F892D5EDD2E7CD33ECC2
:07098B0033FC5002B2D5223B
:10099200EC30E7100FBF000C0EBE00080DBD0004C6
:1009A2000BEB6014A2D5EB13FCED92E7FD2274FF72
:1009B200FCFDFEFF22E480F8A2D574FF13FC7D80CB
:0309C200E480EFDF
:100F0100020A53E493A3F8E493A34003F68001F2A9
:100F110008DFF48029E493A3F85407240CC8C333F1
:100F2100C4540F4420C8834004F456800146F6DFC0
:100F3100E4800B01020408102040809011B9E47E86
:100F4100019360BCA3FF543F30E509541FFEE493B5
:100F5100A360010ECF54C025E060A840B8E493A37C
:100F6100FAE493A3F8E493A3C8C582C8CAC583CAA7
:100F7100F0A3C8C582C8CAC583CADFE9DEE780BE5F
:0111CB000023
:1009C500BB010689828A83E0225002E722BBFE0230
:0909D500E32289828A83E4932263
:1009DE00EF8DF0A4A8F0CF8CF0A428CE8DF0A42E2D
:0209EE00FE22E7
:1009F000BC000BBE0029EF8DF084FFADF022E4CCEB
:100A0000F875F008EF2FFFEE33FEEC33FCEE9DECB3
:100A1000984005FCEE9DFE0FD5F0E9E4CEFD22EDF9
:100A2000F8F5F0EE8420D21CFEADF075F008EF2F43
:100A3000FFED33FD4007985006D5F0F222C398FD34
:050A40000FD5F0EA22D1
:0E0A4500C3E49FFFE49EFEE49DFDE49CFC22C2
:00000001FF
